:020000040000FA
:040000008A01192830
:040004000034003490
:080008000000090083166130BD
:1000100081003F3085000030860000308700FF30CF
:1000200088000330890006309F008312FF3087006C
:10003000080006200430860087130000871754301C
:1000400086000713000007176D3086008712000036
:1000500087167830860007120000071604308600E5
:1000600087110000871578308600071100000715FA
:100070003E30860087100000871478308600071015
:100080000000071459267330860087130000871775
:100090005C3086000713000007173830860087128F
:1000A000000087160430860007120000071678301B
:1000B000860087110000871579308600071100003F
:1000C00007155830860087100000871454308600CA
:1000D00007100000071459265430860087130000CB
:1000E00087177730860007130000071758308600FF
:1000F00087120000871604308600071200000716DA
:100100005C30860087110000871554308600071187
:1001100000000715773086008710000087143830FC
:10012000860007100000071459263930860087130F
:100130000000871779308600071300000717393051
:1001400086008712000087166E30860007120000B6
:10015000071678308600871100008715003086006A
:10016000071100000715673086008710000087140C
:100170000030860007100000071459261E30860044
:100180008713000087173E3086000713000007170B
:1001900077308600871200008716543086000712D9
:1001A00000000716003086008711000087155E30BA
:1001B00086000711000007157930860087100000BF
:1001C00087140030860007100000071459265E309F
:1001D000860087130000871704308600071300008D
:1001E00007175C3086008712000087166D30860086
:1001F00007120000071600308600871100008715DF
:1002000000308600071100000715003086008710B7
:1002100000008714003086000710000007145926DC
:100220007C3086008713000087177730860007131D
:100230000000071778308600871200008716043008
:1002400086000712000007165B3086008711000049
:100250008715003086000711000007150030860062
:100260008710000087140030860007100000071474
:100270005926733086008713000087175030860098
:1002800007130000071777308600871200008716D3
:100290005830860007120000071678308600871154
:1002A000000087150430860007110000071558303C
:1002B0008600871000008714773086000710000042
:1002C000071459264F308600871300008717003027
:1002D0008600071300000717003086008712000011
:1002E00087160030860007120000071600308600CF
:1002F00087110000871500308600071100000715E0
:100300000030860087100000871400308600071038
:100310000000071459265430860087130000871701
:1003200054308600071300000717773086008712C5
:1003300000008716543086000712000007160430AC
:1003400086008711000087157330860007110000B2
:1003500007153E308600871000008714383086006D
:1003600007100000071459265E308600871300002E
:1003700087177930860007130000071700308600C2
:10038000871200008716003086000712000007164B
:1003900000308600871100008715003086000711A5
:1003A0000000071500308600871000008714003019
:1003B000860007100000071459265E308600871358
:1003C00000008717043086000713000007176D3000
:1003D000860087120000871673308600071200001F
:1003E00007163830860087110000871577308600A1
:1003F0000711000007156E30860087100000871473
:100400006D30860007100000071459263930860029
:100410008713000087175C3086000713000007175A
:1004200054308600871200008716003086000712BD
:1004300000000716793086008711000087153830D4
:1004400086000711000007150030860087100000A5
:1004500087140030860007100000071459267330F7
:1004600086008713000087170430860007130000FA
:10047000071758308600871200008716063086005E
:100480000712000007167D308600871100008715CF
:10049000713086000711000007157F308600871035
:1004A0000000871407308600071000000714592643
:1004B00077308600871300008717503086000713B7
:1004C00000000717673086008712000087163E304D
:1004D000860007120000071604308600871100000E
:1004E00087157830860007110000071579308600DF
:1004F000871000008714583086000710000007148A
:100500005926783086008713000087173E30860012
:100510000713000007175030860087120000871667
:10052000773086000712000007160030860087111A
:10053000000087155E30860007110000071579302E
:100540008600871000008714003086000710000026
:10055000071459265430860087130000871754303B
:10056000860007130000071704308600871200007A
:100570008716583086000712000007165030860094
:100580008711000087155C308600071100000715F1
:10059000583086008710000087145C3086000710F2
:1005A0000000071459267330860087130000871750
:1005B000503086000713000007175C308600871252
:1005C0000000871671308600071200000716793088
:1005D00086008711000087156D3086000711000026
:1005E00007155C30860087100000871450308600A5
:1005F00007100000071459265C308600871300009E
:10060000871738308600071300000717043086006C
:100610008712000087161C3086000712000007169C
:10062000773086008711000087155030860007114B
:1006300000000715793086008710000087146D30A0
:10064000860007100000071459261C308600871307
:100650000000871777308600071300000717503017
:1006600086008712000087166F3086000712000090
:100670000716773086008711000087156D308600D9
:10068000071100000715003086008710000087144E
:100690000030860007100000071459261E3086001F
:1006A00087130000871779308600071300000717AB
:1006B0006D3086008712000087163E3086000712D4
:1006C000000007166D308600871100008715003086
:1006D0008600071100000715003086008710000013
:1006E0008714003086000710000007145926773061
:1006F0008600871300008717383086000713000034
:1007000007177C3086008712000087167930860034
:100710000712000007165030860087110000871569
:10072000783086000711000007155C3086008710BE
:1007300000008714003086000710000007145926B7
:10074000793086008713000087176730860007130B
:10075000000007173E30860087120000871604301D
:10076000860007120000071673308600871100000C
:1007700087155C30860007110000071500308600E1
:100780008710000087146D308600071000000714E2
:1007900059260430860087130000871754308600DE
:1007A00007130000071778308600871200008716AD
:1007B000793086000712000007166F308600871117
:1007C00000008715503086000711000007157730AC
:1007D0008600871000008714543086000710000040
:1007E00007145926773086008713000087173830A2
:1007F00086000713000007171C30860087120000D0
:1008000087167730860007120000071650308600E2
:100810008711000087157930860007110000071541
:100820006D308600871000008714003086000710A6
:1008300000000714592671308600871300008717BF
:10084000383086000713000007175C3086008712D7
:100850000000871650308600071200000716793016
:1008600086008711000087156D3086000711000093
:1008700007150030860087100000871400308600BE
:100880000710000007145926043086008713000063
:10089000871777308600071300000717543086004B
:1008A0008712000087160030860007120000071626
:1008B0000030860087110000871500308600071180
:1008C00000000715003086008710000087140030F4
:1008D000860007100000071459266D308600871324
:1008E000000087177730860007130000071738309D
:1008F00086008712000087161C3086000712000051
:100900000716773086008711000087155E30860055
:100910000711000007155C3086008710000087145F
:100920005030860007100000071459267C308600DE
:100930008713000087177930860007130000071718
:10094000383086008712000087163830860007127C
:10095000000007165C308600871100008715003004
:100960008600071100000715003086008710000080
:1009700087140030860007100000071459266D30D8
:100980008600871300008717773086000713000062
:1009900007175430860087120000871658308600EB
:1009A00007120000071674308600871100008715B3
:1009B000793086000711000007155B30860087102C
:1009C0000000871400308600071000000714592625
:1009D0006D30860087130000871777308600071375
:1009E0000000071754308600871200008716783001
:1009F00086000712000007160430860087110000E9
:100A00008715773086000711000007156F308600C4
:100A10008710000087145C30860007100000071460
:100A20005926383086008713000087173C3086002F
:100A3000071300000717543086008712000087163E
:100A400077308600071200000716003086008711F5
:100A500000008715003086000711000007150030E0
:100A60008600871000008714003086000710000001
:100A7000071459267C3086008713000087177730CB
:100A800086000713000007173E308600871200001B
:100A9000871678308600071200000716043086009B
:100AA0008711000087156D308600071100000715BB
:100AB0007830860087100000871477308600071092
:100AC0000000071459263830860087130000871766
:100AD0003C30860007130000071704308600871299
:100AE000000087166D3086000712000007160030E0
:100AF000860087110000871500308600071100006E
:100B0000071500308600871000008714003086002B
:100B100007100000071459265E3086008713000076
:100B200087177730860007130000071754308600B8
:100B3000871200008716043086000712000007168F
:100B4000793086008711000087153830860007113C
:100B50000000071500308600871000008714003061
:100B6000860007100000071459263E3086008713C0
:100B700000008717503086000713000007177830F1
:100B80008600871200008716773086000712000063
:100B900007165E3086008711000087155C308600DE
:100BA0000711000007150030860087100000871429
:100BB00000308600071000000714592673308600A5
:100BC0008713000087175C308600071300000717A3
:100BD0005030860087120000871678308600071292
:100BE0000000071604308600871100008715383092
:100BF00086000711000007153830860087100000B6
:100C000087145C30860007100000071459267730DF
:100C100086008713000087175030860007130000F6
:100C20000717783086008712000087163C30860050
:100C30000712000007165030860087110000871544
:100C40005C30860007110000071500308600871011
:100C50000000871400308600071000000714592692
:100C60003830860087130000871779308600071315
:100C7000000007175C30860087120000871654308A
:100C800086000712000007167730860087110000E3
:100C90008715503086000711000007155E3086006A
:100CA0008710000087145C308600071000000714CE
:100CB00059260330A200E130A100FF30A000A00BB4
:0C0CC0005F2EA10B5D2EA20B5B2E080026
:02400E00313F40
:00000001FF
